:020000040800F2
:1000000000500020352300084D220008532200082C
:10001000592200085F220008652200080000000045
:100020000000000000000000000000006B2200083B
:1000300077220008000000008322000891220008B7
:100040007D2300087D2300087D2300087D23000810
:100050007D2300087D2300087D2300087D23000800
:100060007D2300087D2300087D2300087D230008F0
:100070007D2300087D2300087D2300087D230008E0
:100080007D2300087D2300087D2300087D230008D0
:10009000A92200087D2300087D2300087D23000895
:1000A0007D2300087D2300087D2300087D230008B0
:1000B0007D2300087D2300087D2300087D230008A0
:1000C0007D2300087D2300087D2300087D23000890
:1000D0007D2300087D2300087D2300087D23000880
:1000E0007D2300087D2300087D2300080000000018
:1000F0000000000000000000000000000000000000
:0C01000000000000000000005FF808F1A3
:1001100010B5054C237833B9044B13B10448AFF341
:1001200000800123237010BDE001002000000000CA
:1001300028D0000808B5034B1BB103490348AFF3AF
:10014000008008BD00000000E401002028D0000865
:1001500081F0004102E000BF83F0004330B54FEA78
:1001600041044FEA430594EA050F08BF90EA020FE5
:100170001FBF54EA000C55EA020C7FEA645C7FEA78
:10018000655C00F0E2804FEA5454D4EB5555B8BF9B
:100190006D420CDD2C4480EA020281EA030382EA0C
:1001A000000083EA010180EA020281EA0303362D9E
:1001B00088BF30BD11F0004F4FEA01314FF4801C71
:1001C0004CEA113102D0404261EB410113F0004F83
:1001D0004FEA03334CEA133302D0524263EB43033A
:1001E00094EA050F00F0A780A4F10104D5F1200ED8
:1001F0000DDB02FA0EFC22FA05F2801841F1000133
:1002000003FA0EF2801843FA05F359410EE0A5F106
:1002100020050EF1200E012A03FA0EFC28BF4CF037
:10022000020C43FA05F3C01851EBE37101F00045ED
:1002300007D54FF0000EDCF1000C7EEB00006EEBFA
:100240000101B1F5801F1BD3B1F5001F0CD3490884
:100250005FEA30004FEA3C0C04F101044FEA4452DB
:1002600012F5800F80F09A80BCF1004F08BF5FEA62
:10027000500C50F1000041EB045141EA050130BD42
:100280005FEA4C0C404141EB0101013C28BFB1F554
:10029000801FE9D291F0000F04BF01460020B1FA9F
:1002A00081F308BF2033A3F10B03B3F120020CDA72
:1002B0000C3208DD02F1140CC2F10C0201FA0CF050
:1002C00021FA02F10CE002F11402D8BFC2F1200CB5
:1002D00001FA02F120FA0CFCDCBF41EA0C0190406B
:1002E000E41AA2BF01EB0451294330BD6FEA0404B4
:1002F0001F3C1CDA0C340EDC04F11404C4F120029F
:1003000020FA04F001FA02F340EA030021FA04F3B0
:1003100045EA030130BDC4F10C04C4F1200220FA07
:1003200002F001FA04F340EA0300294630BD21FA45
:1003300004F0294630BD94F0000F83F4801306BF0B
:1003400081F480110134013D4EE77FEA645C18BFFF
:100350007FEA655C29D094EA050F08BF90EA020F96
:1003600005D054EA000C04BF1946104630BD91EA8E
:10037000030F1EBF0021002030BD5FEA545C05D191
:100380004000494128BF41F0004130BD14F58004D0
:100390003CBF01F5801130BD01F0004545F0FE4144
:1003A00041F470014FF0000030BD7FEA645C1ABF79
:1003B000194610467FEA655C1CBF0B46024650EAB0
:1003C000013406BF52EA033591EA030F41F40021DC
:1003D00030BD00BF90F0000F04BF0021704730B562
:1003E0004FF4806404F132044FF000054FF0000137
:1003F00050E700BF90F0000F04BF0021704730B5F8
:100400004FF4806404F1320410F0004548BF4042CC
:100410004FF000013EE700BF42004FEAE2014FEA21
:1004200031014FEA02701FBF12F07F4393F07F4FFC
:1004300081F06051704732F07F4208BF704793F0FF
:100440007F4F04BF41F40021704730B54FF4607412
:1004500001F0004521F000411CE700BF50EA010215
:1004600008BF704730B54FF000050AE050EA0102BE
:1004700008BF704730B511F0004502D5404261EB2E
:1004800041014FF4806404F132045FEA915C3FF46F
:10049000D8AE4FF003025FEADC0C18BF03325FEA0C
:1004A000DC0C18BF033202EBDC02C2F1200300FABD
:1004B00003FC20FA02F001FA03FE40EA0E0021FAE2
:1004C00002F11444BDE600BF70B54FF0FF0C4CF4D0
:1004D000E06C1CEA11541DBF1CEA135594EA0C0F82
:1004E00095EA0C0F00F0DEF82C4481EA030621EABD
:1004F0004C5123EA4C5350EA013518BF52EA0335F8
:1005000041F4801143F4801338D0A0FB02CE4FF0A9
:100510000005E1FB02E506F00042E0FB03E54FF0D9
:100520000006E1FB03569CF0000F18BF4EF0010ED1
:10053000A4F1FF04B6F5007F64F5407404D25FEACD
:100540004E0E6D4146EB060642EAC62141EA555180
:100550004FEAC52040EA5E504FEACE2EB4F1FD0CC2
:1005600088BFBCF5E06F1ED8BEF1004F08BF5FEA40
:10057000500E50F1000041EB045170BD06F00046F2
:1005800046EA010140EA020081EA0301B4EB5C049F
:10059000C2BFD4EB0C0541EA045170BD41F4801197
:1005A0004FF0000E013C00F3AB8014F1360FDEBFBC
:1005B000002001F0004170BDC4F10004203C35DA98
:1005C0000C341BDC04F11404C4F1200500FA05F31B
:1005D00020FA04F001FA05F240EA020001F00042BC
:1005E00021F0004110EBD37021FA04F642EB060132
:1005F0005EEA430E08BF20EAD37070BDC4F10C045C
:10060000C4F1200500FA04F320FA05F001FA04F21F
:1006100040EA020001F0004110EBD37041F100010B
:100620005EEA430E08BF20EAD37070BDC4F1200516
:1006300000FA05F24EEA020E20FA04F301FA05F27E
:1006400043EA020321FA04F001F0004121FA04F226
:1006500020EA020000EBD3705EEA430E08BF20EAF6
:10066000D37070BD94F0000F0FD101F00046400030
:1006700041EB010111F4801F08BF013CF7D041EAB2
:10068000060195F0000F18BF704703F000465200B6
:1006900043EB030313F4801F08BF013DF7D043EA87
:1006A0000603704794EA0C0F0CEA135518BF95EA3D
:1006B0000C0F0CD050EA410618BF52EA4306D1D1C4
:1006C00081EA030101F000414FF0000070BD50EAE3
:1006D000410606BF1046194652EA430619D094EA6D
:1006E0000C0F02D150EA013613D195EA0C0F05D157
:1006F00052EA03361CBF104619460AD181EA0301AB
:1007000001F0004141F0FE4141F470014FF0000062
:1007100070BD41F0FE4141F4780170BD70B54FF0FD
:10072000FF0C4CF4E06C1CEA11541DBF1CEA13557D
:1007300094EA0C0F95EA0C0F00F0A7F8A4EB05045F
:1007400081EA030E52EA03354FEA013100F0888056
:100750004FEA03334FF0805545EA131343EA12631F
:100760004FEA022245EA111545EA10654FEA0026D4
:100770000EF000419D4208BF964244F1FD0404F58D
:10078000407402D25B084FEA3202B61A65EB0305E9
:100790005B084FEA32024FF480104FF4002CB6EBA6
:1007A000020E75EB030E22BFB61A754640EA0C0026
:1007B0005B084FEA3202B6EB020E75EB030E22BF66
:1007C000B61A754640EA5C005B084FEA3202B6EBA7
:1007D000020E75EB030E22BFB61A754640EA9C0066
:1007E0005B084FEA3202B6EB020E75EB030E22BF36
:1007F000B61A754640EADC0055EA060E18D04FEAF4
:10080000051545EA16754FEA06164FEAC30343EA93
:1008100052734FEAC2025FEA1C1CC0D111F4801F60
:100820000BD141EA00014FF000004FF0004CB6E759
:1008300011F4801F04BF01430020B4F1FD0C88BFF8
:10084000BCF5E06F3FF6AFAEB5EB030C04BFB6EB03
:10085000020C5FEA500C50F1000041EB045170BDF6
:100860000EF0004E4EEA113114EB5C04C2BFD4EB23
:100870000C0541EA045170BD41F480114FF0000EA7
:10088000013C90E645EA060E8DE60CEA135594EA23
:100890000C0F08BF95EA0C0F3FF43BAF94EA0C0F26
:1008A0000AD150EA01347FF434AF95EA0C0F7FF49B
:1008B00025AF104619462CE795EA0C0F06D152EAEF
:1008C00003353FF4FDAE1046194622E750EA4106D3
:1008D00018BF52EA43067FF4C5AE50EA41047FF4E4
:1008E0000DAF52EA43057FF4EBAE12E74FF0FF3C49
:1008F00006E000BF4FF0010C02E000BF4FF0010C1A
:100900004DF804CD4FEA410C7FEA6C5C4FEA430C92
:1009100018BF7FEA6C5C1BD001B050EA410C0CBFE1
:1009200052EA430C91EA030F02BF90EA020F002043
:10093000704710F1000F91EA030F58BF994208BFAA
:1009400090422CBFD8176FEAE37040F00100704767
:100950004FEA410C7FEA6C5C02D150EA013C07D1BE
:100960004FEA430C7FEA6C5CD6D152EA033CD3D009
:100970005DF8040B704700BF8446104662468C4603
:100980001946634600E000BF01B5FFF7B7FF002836
:1009900048BF10F1000F01BD4DF808EDFFF7F4FF5F
:1009A0000CBF012000205DF808FB00BF4DF808EDEA
:1009B000FFF7EAFF34BF012000205DF808FB00BF0D
:1009C0004DF808EDFFF7E0FF94BF012000205DF82F
:1009D00008FB00BF4DF808EDFFF7CEFF94BF0120E4
:1009E00000205DF808FB00BF4DF808EDFFF7C4FFDD
:1009F00034BF012000205DF808FB00BF4FEA410C26
:100A00007FEA6C5C02D150EA013C0AD14FEA430C08
:100A10007FEA6C5C02D152EA033C02D14FF0000045
:100A200070474FF0010070474FEA410212F5001283
:100A300015D211D56FF47873B3EB625212D94FEA25
:100A4000C12343F0004343EA505311F0004F23FA0F
:100A500002F018BF404270474FF00000704750EA64
:100A6000013005D111F0004008BF6FF00040704721
:100A70004FF00000704700BF4A0011D212F500127B
:100A800011D20DD56FF47873B3EB62520ED44FEAE6
:100A9000C12343F0004343EA505323FA02F0704766
:100AA0004FF00000704750EA013002D14FF0FF30A4
:100AB00070474FF0000070474FEA4102B2F1E04347
:100AC00024BFB3F5001CDCF1FE5C0DD901F0004C35
:100AD0004FEAC0024CEA5070B2F1004F40EB830085
:100AE00008BF20F00100704711F0804F21D113F1B1
:100AF0003872BCBF01F00040704741F480114FEAEA
:100B00005252C2F11802C2F1200C10FA0CF320FA72
:100B100002F018BF40F001004FEAC1234FEAD3238F
:100B200003FA0CFC40EA0C0023FA02F34FEA4303F9
:100B3000CCE77FEA625307D150EA01331EBF4FF082
:100B4000FE4040F44000704701F0004040F0FE409D
:100B500040F40000704700BF80F0004002E000BF9A
:100B600081F0004142001FBF5FEA410392EA030F98
:100B70007FEA226C7FEA236C6AD04FEA1262D2EBE2
:100B80001363C1BFD218414048404140B8BF5B42E7
:100B9000192B88BF704710F0004F40F4000020F080
:100BA0007F4018BF404211F0004F41F4000121F096
:100BB0007F4118BF494292EA030F3FD0A2F10102E0
:100BC00041FA03FC10EB0C00C3F1200301FA03F11E
:100BD00000F0004302D5494260EB4000B0F5000F41
:100BE00013D3B0F1807F06D340084FEA310102F100
:100BF0000102FE2A51D2B1F1004F40EBC25008BFB2
:100C000020F0010040EA03007047490040EB00007B
:100C1000013A28BFB0F5000FEDD2B0FA80FCACF17C
:100C2000080CB2EB0C0200FA0CF0AABF00EBC250A9
:100C300052421843BCBFD0401843704792F0000F97
:100C400081F4000106BF80F400000132013BB5E7EA
:100C50004FEA41037FEA226C18BF7FEA236C21D060
:100C600092EA030F04D092F0000F08BF08467047C5
:100C700090EA010F1CBF0020704712F07F4F04D193
:100C8000400028BF40F00040704712F100723CBFA6
:100C900000F50000704700F0004343F0FE4040F4D0
:100CA000000070477FEA226216BF08467FEA23638E
:100CB0000146420206BF5FEA412390EA010F40F479
:100CC000800070474FF0000304E000BF10F00043C5
:100CD00048BF40425FEA000C08BF704743F09643AC
:100CE00001464FF000001CE050EA010208BF7047C7
:100CF0004FF000030AE000BF50EA010208BF70474E
:100D000011F0004302D5404261EB41015FEA010C62
:100D100002BF84460146002043F0B64308BFA3F15A
:100D20008053A3F50003BCFA8CF2083AA3EBC2533C
:100D300010DB01FA02FC634400FA02FCC2F120025B
:100D4000BCF1004F20FA02F243EB020008BF20F092
:100D50000100704702F1200201FA02FCC2F12002F8
:100D600050EA4C0021FA02F243EB020008BF20EAED
:100D7000DC7070474FF0FF0C1CEAD0521EBF1CEA1B
:100D8000D15392EA0C0F93EA0C0F6FD01A4480EA09
:100D9000010C400218BF5FEA41211ED04FF00063F2
:100DA00043EA501043EA5111A0FB01310CF000401E
:100DB000B1F5000F3EBF490041EAD3715B0040EA44
:100DC000010062F17F02FD2A1DD8B3F1004F40EB14
:100DD000C25008BF20F00100704790F0000F0CF0E7
:100DE000004C08BF49024CEA502040EA51207F3AAB
:100DF000C2BFD2F1FF0340EAC250704740F4000086
:100E00004FF00003013A5DDC12F1190FDCBF00F076
:100E100000407047C2F10002410021FA02F1C2F124
:100E2000200200FA02FC5FEA310040F1000053EAC0
:100E30004C0308BF20EADC70704792F0000F00F00E
:100E4000004C02BF400010F4000F013AF9D040EA14
:100E50000C0093F0000F01F0004C02BF490011F4A8
:100E6000000F013BF9D041EA0C018FE70CEAD153A6
:100E700092EA0C0F18BF93EA0C0F0AD030F0004C26
:100E800018BF31F0004CD8D180EA010000F00040DA
:100E9000704790F0000F17BF90F0004F084691F098
:100EA000000F91F0004F14D092EA0C0F01D14202D2
:100EB0000FD193EA0C0F03D14B0218BF084608D19B
:100EC00080EA010000F0004040F0FE4040F40000E5
:100ED000704740F0FE4040F4400070474FF0FF0C78
:100EE0001CEAD0521EBF1CEAD15392EA0C0F93EABF
:100EF0000C0F69D0A2EB030280EA010C49024FEA11
:100F0000402037D04FF0805343EA111143EA1013C9
:100F10000CF000408B4238BF5B0042F17D024FF481
:100F2000000C8B4224BF5B1A40EA0C00B3EB510F5C
:100F300024BFA3EB510340EA5C00B3EB910F24BF45
:100F4000A3EB910340EA9C00B3EBD10F24BFA3EBCA
:100F5000D10340EADC001B0118BF5FEA1C1CE0D192
:100F6000FD2A3FF650AF8B4240EBC25008BF20F045
:100F7000010070470CF0004C4CEA50207F32C2BF99
:100F8000D2F1FF0340EAC250704740F400004FF036
:100F90000003013A37E792F0000F00F0004C02BF67
:100FA000400010F4000F013AF9D040EA0C0093F031
:100FB000000F01F0004C02BF490011F4000F013B8B
:100FC000F9D041EA0C0195E70CEAD15392EA0C0FF3
:100FD00008D142027FF47DAF93EA0C0F7FF470AF2B
:100FE000084676E793EA0C0F04D14B023FF44CAF6E
:100FF00008466EE730F0004C18BF31F0004CCAD103
:1010000030F000427FF45CAF31F000437FF43CAF3E
:101010005FE700BF4FF0FF3C06E000BF4FF0010C60
:1010200002E000BF4FF0010C4DF804CD4FEA400242
:101030004FEA41037FEA226C18BF7FEA236C11D08C
:1010400001B052EA530C18BF90EA010F58BFB2EB3F
:10105000030088BFC81738BF6FEAE17018BF40F0BF
:10106000010070477FEA226C02D15FEA402C05D173
:101070007FEA236CE4D15FEA412CE1D05DF8040BF8
:10108000704700BF844608466146FFE70FB5FFF78B
:10109000C9FF002848BF10F1000F0FBD4DF808ED43
:1010A000FFF7F4FF0CBF012000205DF808FB00BF34
:1010B0004DF808EDFFF7EAFF34BF012000205DF88E
:1010C00008FB00BF4DF808EDFFF7E0FF94BF0120DB
:1010D00000205DF808FB00BF4DF808EDFFF7D2FFD8
:1010E00094BF012000205DF808FB00BF4DF808ED1B
:1010F000FFF7C8FF34BF012000205DF808FB00BFE8
:1011000042000ED2B2F1FE4F0BD34FF09E03B3EB71
:10111000126209D44FEA002343F0004323FA02F09D
:1011200070474FF00000704712F1610F01D1420289
:1011300002D14FF0FF3070474FF00000704700BF02
:101140007BB972B90029BEBF00204FF0004106E014
:1011500008BF00281CBF6FF000414FF0FF3000F0C7
:10116000A9B9ADF1080C6DE904CE002909DB002B0B
:101170001ADB00F035F8DDF804E0DDE9022304B005
:101180007047404261EB4101002B1BDB00F028F867
:10119000DDF804E0DDE9022304B0404261EB4101E7
:1011A000524263EB43037047524263EB430300F048
:1011B00017F8DDF804E0DDE9022304B0404261EBFA
:1011C00041017047524263EB430300F009F8DDF838
:1011D00004E0DDE9022304B0524263EB43037047AD
:1011E0002DE9F047089E0D4604468846002B4DD158
:1011F0008A42944668D9B2FA82F252B101FA02F3F5
:10120000C2F1200120FA01F10CFA02FC41EA0308C4
:1012100094404FEA1C41B8FBF1F71FFA8CFE01FB2A
:10122000178807FB0EF0230C43EA084398420AD9BB
:101230001CEB030307F1FF3580F01E81984240F25A
:101240001B81023F63441B1AB3FBF1F001FB103317
:1012500000FB0EFEA4B244EA0344A6450AD91CEBE7
:10126000040400F1FF3380F00981A64540F20681B5
:10127000644402380021A4EB0E0440EA07401EB18A
:101280000023D440C6E90043BDE8F0878B4208D96B
:10129000002E00F0EE800021C6E900050846BDE8FA
:1012A000F087B3FA83F100294AD1AB4202D38242DC
:1012B00000F2FC80841A65EB030301209846002E9F
:1012C000E2D0C6E90048DFE702B9FFDEB2FA82F2F7
:1012D000002A40F09180A1EB0C0001214FEA1C474D
:1012E0001FFA8CFEB0FBF7F307FB1300250C45EA51
:1012F00000450EFB03F0A84208D91CEB050503F1DD
:10130000FF3802D2A84200F2CE8043462D1AB5FB28
:10131000F7F007FB10550EFB00FEA4B244EA0544AB
:10132000A64508D91CEB040400F1FF3502D2A645FE
:1013300000F2B6802846A4EB0E0440EA03409EE784
:10134000C1F120078B4022FA07FC4CEA030C25FA76
:1013500007FA4FEA1C49BAFBF9F820FA07F309FB30
:1013600018AA8D401FFA8CFE1D4300FA01F308FBFA
:101370000EF02C0C44EA0A44A04202FA01F20BD906
:101380001CEB040408F1FF3A80F08880A04240F290
:101390008580A8F102086444241AB4FBF9F009FB23
:1013A000104400FB0EFEADB245EA0444A64508D940
:1013B0001CEB040400F1FF356CD2A6456AD9023853
:1013C000644440EA0840A0FB0295A4EB0E04AC4242
:1013D000C846AE4656D353D0002E69D0B3EB0802B0
:1013E00064EB0E0422FA01F304FA07F71F43CC4022
:1013F000C6E90074002147E70CFA02FCC2F12001A3
:1014000025FA01F34FEA1C4720FA01F195400D43FC
:10141000B3FBF7F107FB11331FFA8CFE280C40EAEF
:10142000034001FB0EF3834204FA02F408D91CEBDB
:10143000000001F1FF382FD283422DD902396044D8
:10144000C01AB0FBF7F307FB1300ADB245EA004545
:1014500003FB0EF0A84208D91CEB050503F1FF3889
:1014600016D2A84214D9023B6544281A43EA014126
:1014700038E73146304607E72F46E4E61846F9E6F6
:101480004B45A9D2B9EB020865EB0C0E0138A3E776
:101490004346EAE7284694E74146D1E7D0467BE752
:1014A0006444023847E7023B65442FE7084606E7F5
:1014B0003146E9E6704700BFF0B595B002AF00F0E5
:1014C0005FFF00F01BF94FF4FA6000F0BBFF00F083
:1014D00057FA00F06DF900F099F900F0CDF909F034
:1014E00079FA002387F84730002387F83B30002340
:1014F00087F83A30002387F839307B4B07F12C040A
:101500000FCB07C423703B461946784809F0FEFE0E
:101510000346002B08D00A2387F8473001224FF4F6
:101520000051734801F044FA0AF044FB0AF08CFBC6
:10153000012101200AF06EFC07F12C03194600205E
:101540000AF0B2FE0AF098FB6A4B1B78012BFBD124
:10155000684B00221A7097F84630013387F84630FE
:1015600097F84630632BEFD9002387F8463097F879
:101570004530013387F8453097F84530092BE3D9DA
:10158000002387F845303B461946584809F067FF65
:101590000346002B61D1002387F847304FF40051F8
:1015A000534801F01DFAB7F91C301846FFF78EFBBF
:1015B0000446B7F91A301846FFF788FB0346194668
:1015C000204600F0F1FA3864B7F91C301846FFF7EE
:1015D0007DFB0346184600F03BFBF863B7F91A3071
:1015E0001846FFF773FB0346184600F035FA03462A
:1015F00087F83B30B7F91C301846FFF767FB034606
:10160000184600F06BFA034687F83A30386C00F061
:10161000A7FA034687F8393097F83B30012B07D8F3
:1016200097F83A30012B03D897F83930012B11D9AC
:1016300097F83B30042B07D897F83A30042B03D89F
:1016400097F83930032B02D900F02AFB1FE000F095
:1016500063FB1CE000F09AFB19E097F84730013378
:1016600087F847300A2297F8473093420FD30A236E
:1016700087F8473001224FF400511D4801F098F9D6
:101680003B461946194809F041FE00F07FFBB7F9C7
:101690001A40B7F91C309DB2386CFFF731FD034694
:1016A0009EB2F86BFFF72CFD03469BB232462946EB
:1016B000204600F07FFBB7F91A40B7F91C309DB205
:1016C000386CFFF71DFD03469EB2F86BFFF718FD5F
:1016D00003469AB2084B1B780093134632462946BC
:1016E000204600F0FDFB2FE740D00008FC01002061
:1016F00000100140F0020020F102002080B594B0FB
:1017000000AF07F128032822002118460AF02CFE1A
:1017100007F1140300221A605A609A60DA601A61B5
:101720003B1D00221A605A609A60DA600123BB6296
:101730004FF48033FB6200233B630123BB6302232E
:101740007B644FF48033BB644FF4E013FB6407F118
:101750002803184603F0F0FD0346002B01D000F0EB
:1017600063FC0F237B610223BB610023FB614FF409
:1017700080633B6200237B6207F114030221184659
:1017800004F05CF80346002B01D000F04DFC102360
:101790007B6000233B613B1D184604F0D3F90346F0
:1017A000002B01D000F040FC00BF5037BD4680BD8B
:1017B00080B500AF124B134A1A60114B124A5A609F
:1017C0000F4B00229A600E4B0022DA600C4B4FF454
:1017D00080421A610A4B00225A61094B00229A6129
:1017E000074B0022DA61064B00221A62044801F01E
:1017F00011F90346002B01D000F016FC00BF80BD9C
:10180000FC01002000540040A086010080B500AF1C
:10181000174B184A1A60164B4FF482725A60144BD9
:1018200000229A60124B0022DA60114B00221A61EA
:101830000F4B00225A610E4B4FF400729A610C4B11
:101840001022DA610A4B00221A62094B00225A6206
:10185000074B00229A62064B0A22DA62044804F01F
:1018600027FA0346002B01D000F0DEFB00BF80BD4D
:10187000500200200030014080B592B000AF07F167
:10188000400300221A605A6007F1240300221A6004
:101890005A609A60DA601A615A619A613B1D20228F
:1018A000002118460AF060FD334B344A1A60324B6F
:1018B00000225A60304B00229A602F4B44F2506253
:1018C000DA602D4B00221A612B4B00225A612A4B01
:1018D00000229A61284804F06FFA0346002B01D0D9
:1018E00000F0A2FB00233B6400237B6407F140036C
:1018F0001946214804F082FE0346002B01D000F077
:1019000093FB60237B620123BB620023FB62002305
:101910003B6304237B630023BB630023FB6307F16A
:10192000240300221946144804F09CFB0346002BB4
:1019300001D000F079FB00237B600023BB60002313
:10194000FB6000233B6100237B614FF40053BB61CC
:1019500000233B623B1D1946074804F0ADFE0346D9
:10196000002B01D000F060FB034800F03BFC00BFFF
:101970004837BD4680BD00BFA8020020002C0140B2
:1019800080B588B000AF07F1100300221A605A60DA
:101990009A60DA602D4B9B692C4A43F010039361E7
:1019A0002A4B9B6903F01003FB60FB68274B9B6984
:1019B000264A43F020039361244B9B6903F02003E4
:1019C000BB60BB68214B9B69204A43F004039361D1
:1019D0001E4B9B6903F004037B607B681B4B9B6978
:1019E0001A4A43F008039361184B9B6903F00803FC
:1019F0003B603B6800224FF40051154800F0D8FFCF
:101A000000221E21134800F0D3FF4FF400533B6126
:101A100001237B610023BB610223FB6107F11003FB
:101A200019460B4800F040FE1E233B6101237B61F9
:101A30000023BB610223FB6107F11003194605482F
:101A400000F032FE00BF2037BD4680BD00100240CE
:101A5000001001400008014080B582B000AF7860FE
:101A60004FF000017868FFF741FB0346002B13D0CD
:101A7000164B19467868FFF72FFB0346002B01D061
:101A800005231EE0124B19467868FFF725FB034635
:101A9000002B15D0032314E00E4B19467868FFF78E
:101AA00011FB0346002B01D004230AE00A4B194620
:101AB0007868FFF707FB0346002B01D0022300E004
:101AC000012318460837BD4680BD00BF00003442E0
:101AD00000002042000020C20000F0C180B582B0AA
:101AE00000AF78604FF000017868FFF7FFFA034617
:101AF000002B13D0164B19467868FFF7EDFA034612
:101B0000002B01D005231EE0124B19467868FFF721
:101B1000E3FA0346002B15D0032314E00E4B1946BD
:101B20007868FFF7CFFA0346002B01D004230AE0C0
:101B30000A4B19467868FFF7C5FA0346002B01D017
:101B4000022300E0012318460837BD4680BD00BFD0
:101B50000080404400003E440000204400802244B5
:101B600080B582B000AF78600C4B19467868FFF7FB
:101B7000B3FA0346002B01D003230AE0084B1946B1
:101B80007868FFF7A9FA0346002B01D0022300E092
:101B9000012318460837BD4680BD00BF00C05A4526
:101BA00000803B450000000080B584B000AF786045
:101BB00039603868FEF730FC1DA3D3E90023FEF737
:101BC00083FC02460B46104619461BA3D3E90023AB
:101BD000FEF7C4FA02460B4619A1D1E90001FEF74F
:101BE0009DFD02460B4610461946FEF765FF03466B
:101BF000FB607868FEF710FC4FF00002124BFEF716
:101C00008DFD02460B46104619460BF021F80246A0
:101C10000B4610461946FEF74FFF0346BB60F968B6
:101C2000B868FFF75BF9034618461037BD4680BD1C
:101C30001F85EB51B89E204066666666661271404D
:101C4000A27F828B1535D2BF00C087400000000004
:101C500080B582B000AF78607868FEF7DDFB0CA33A
:101C6000D3E90023FEF730FC02460B461046194626
:101C70004FF00002084BFEF751FD02460B4610469E
:101C80001946FEF719FF034618460837BD4680BDC2
:101C90006666666666E63440000059400000000053
:101CA00098B500AF184B1B78012B24D0164B01229E
:101CB0001A70164B44F25062DA62144BDC6A134B12
:101CC000DB6A1846FEF7FEFF03461846FEF7A4FB44
:101CD0000BA3D3E90023FEF7F7FB02460B461046A1
:101CE0001946FEF7C9FE0346084AE31A536300216A
:101CF000074804F0B1F800BF98BD00BFAFF3008003
:101D00009A9999999999C93FF1020020002C0140B4
:101D1000A80200200000000098B500AF184B1B7807
:101D2000022B24D0164B02221A70164B42F6E062A8
:101D3000DA62144BDC6A134BDB6A1846FEF7C2FF0B
:101D400003461846FEF768FB0BA3D3E90023FEF712
:101D5000BBFB02460B4610461946FEF78DFE0346B6
:101D6000084AE31A53630021074804F075F800BFDE
:101D700098BD00BFAFF300809A9999999999D93F7E
:101D8000F1020020002C0140A802002080B500AF25
:101D9000054B00221A700021044804F0FFF8044BA0
:101DA00000225A6300BF80BDF1020020A80200207B
:101DB000002C0140B0B58AB000AF04460846114679
:101DC0001A462346FB800346BB800B467B801346A6
:101DD0003B803D4B07F10C041D460FCD0FC42B6813
:101DE000238007F10C031221184608F0B1FEB7F961
:101DF000062007F12003354918460AF0BDFA0A23E8
:101E000087F8253007F120030621184608F0A0FEC8
:101E100007F10C032E4A2F4918460AF0ADFA07F1D4
:101E20000C031221184608F093FEBA8807F120032C
:101E3000264918460AF0A0FA0A2387F8253007F148
:101E400020030621184608F083FE07F10C03224AFE
:101E5000204918460AF090FA07F10C03122118469F
:101E600008F076FE7A8807F12003184918460AF030
:101E700083FA0A2387F8253007F120030621184644
:101E800008F066FE07F10C03144A124918460AF0DE
:101E900073FA07F10C031221184608F059FE3A882C
:101EA00007F12003094918460AF066FA0A2387F861
:101EB000253007F120030621184608F049FE00BF2F
:101EC0002837BD46B0BD00BF84D0000850D0000800
:101ED00054D0000864D0000868D0000878D000080A
:101EE00090B587B000AF0446084611461A4623460F
:101EF000FB800346BB800B467B8013463B8009F08A
:101F0000A3FE97F82830012B08D10021002009F00A
:101F100081FF3E4900200AF0C7F90BE097F828300E
:101F2000022B07D10021002009F074FF384900205E
:101F30000AF0BAF90121002009F06CFF35490020B0
:101F40000AF0B2F901210A2009F064FFB7F906206E
:101F500007F10803304918460AF00EFA07F10803A2
:101F6000194600200AF0A0F90221002009F052FFD2
:101F70002A4900200AF098F902210A2009F04AFFB4
:101F8000BA8807F10803244918460AF0F5F907F161
:101F90000803194600200AF087F90321002009F000
:101FA00039FF1F4900200AF07FF903210A2009F0B8
:101FB00031FF7A8807F10803174918460AF0DCF95F
:101FC00007F10803194600200AF06EF904210020E9
:101FD00009F020FF134900200AF066F904210A20C5
:101FE00009F018FF3A8807F108030B4918460AF070
:101FF000C3F907F10803194600200AF055F909F062
:102000003BFE00BF1C37BD4690BD00BF98D0000806
:10201000A8D00008B4D0000850D00008C0D00008F4
:10202000CCD00008D8D0000880B400AF72B600BF92
:10203000FEE7000080B485B000AF154B9B69144AE1
:1020400043F001039361124B9B6903F00103BB60F2
:10205000BB680F4BDB690E4A43F08053D3610C4BD6
:10206000DB6903F080537B607B680A4B5B68FB6035
:10207000FB6823F0E063FB60FB6843F00073FB60E8
:10208000044AFB68536000BF1437BD4680BC7047EC
:10209000001002400000014080B588B000AF7860B9
:1020A00007F1100300221A605A609A60DA607B68B8
:1020B0001B68154A934223D1144B9B69134A43F082
:1020C00008039361114B9B6903F00803FB60FB68F5
:1020D000C0233B6112237B610323FB6107F11003E3
:1020E00019460B4800F0E0FA084BDB69074A43F455
:1020F0000013D361054BDB6903F40013BB60BB68BD
:1021000000BF2037BD4680BD005400400010024093
:10211000000C014080B588B000AF786007F1100373
:1021200000221A605A609A60DA607B681B681B4A5A
:1021300093422FD11A4B9B69194A43F48053936100
:10214000174B9B6903F48053FB60FB68144B9B693E
:10215000134A43F004039361114B9B6903F004039A
:10216000BB60BB68A0233B6102237B610323FB614F
:1021700007F1100319460B4800F096FA40233B6123
:1021800000237B610023BB6107F11003194605485A
:1021900000F08AFA00BF2037BD4680BD0030014004
:1021A000001002400008014080B485B000AF7860A4
:1021B0007B681B68094A93420BD1094B9B69084A0B
:1021C00043F400639361064B9B6903F40063FB6077
:1021D000FB6800BF1437BD4680BC7047002C01402F
:1021E0000010024080B588B000AF786007F110039E
:1021F00000221A605A609A60DA607B681B68104A95
:10220000934218D10F4B9B690E4A43F0040393612C
:102210000C4B9B6903F00403FB60FB684FF4807375
:102220003B6102237B610223FB6107F11003194626
:10223000054800F039FA00BF2037BD4680BD00BF19
:10224000002C0140001002400008014080B400AFA3
:10225000FEE780B400AFFEE780B400AFFEE780B4D5
:1022600000AFFEE780B400AFFEE780B400AF00BF70
:10227000BD4680BC704780B400AF00BFBD4680BC87
:10228000704780B400AF00BFBD4680BC70470000FF
:1022900080B500AF00F0BAF8024B01221A7000BFFF
:1022A00080BD00BFF002002080B500AF024801F001
:1022B000B0FC00BF80BD00BF940F002080B586B089
:1022C00000AF7860144A154BD31A7B617B693B6180
:1022D000134B1B68002B02D1114B124A1A60104B92
:1022E0001A687B6813443A699A4207D20AF004F8E4
:1022F00003460C221A604FF0FF3309E0084B1B68BD
:10230000FB60074B1A687B681344054A1360FB683F
:1023100018461837BD4680BD00500020000400005C
:10232000F4020020B816002080B400AF00BFBD4604
:1023300080BC70470C480D490D4A002302E0D45878
:10234000C4500433C4188C42F9D30A4A0A4C0023FF
:1023500001E013600432A242FBD3FFF7E5FF09F06E
:10236000D1FFFFF7A9F8704700000020E00100202E
:102370008CD90008E0010020B4160020FEE7000020
:1023800080B500AF084B1B68074A43F01003136089
:10239000032000F047F9002000F008F8FFF74AFE9C
:1023A0000023184680BD00BF0020024080B582B0E7
:1023B00000AF7860124B1A68124B1B7819464FF425
:1023C0007A73B3FBF1F3B2FBF3F3184600F05FF955
:1023D0000346002B01D001230EE07B680F2B0AD8A7
:1023E000002279684FF0FF3000F027F9064A7B6839
:1023F0001360002300E0012318460837BD4680BD66
:1024000000000020080000200400002080B400AF7D
:10241000054B1B781A46054B1B681344034A13608F
:1024200000BFBD4680BC704708000020F8020020B5
:1024300080B400AF024B1B681846BD4680BC704795
:10244000F802002080B584B000AF7860FFF7F0FF9D
:10245000B8607B68FB60FB68B3F1FF3F05D00A4BB7
:102460001B781A46FB681344FB6000BFFFF7E0FFD0
:102470000246BB68D31AFA689A42F7D800BF00BF79
:102480001037BD4680BD00BF0800002080B485B075
:1024900000AF78607B6803F00703FB600C4BDB68E0
:1024A000BB60BA684FF6FF031340BB60FB681A02BB
:1024B000BB68134343F0BF6343F40033BB60044A7B
:1024C000BB68D36000BF1437BD4680BC704700BFF7
:1024D00000ED00E080B400AF044BDB681B0A03F0A2
:1024E00007031846BD4680BC704700BF00ED00E002
:1024F00080B483B000AF0346FB7197F90730002B1F
:102500000BDBFB7903F01F02064997F907305B09E3
:10251000012000FA02F241F8232000BF0C37BD462B
:1025200080BC704700E100E080B483B000AF034698
:102530003960FB7197F90730002B0ADB3B68DAB290
:102540000C4997F907301201D2B20B4483F80023EB
:102550000AE03B68DAB20849FB7903F00F03043B59
:102560001201D2B20B441A7600BF0C37BD4680BCB4
:10257000704700BF00E100E000ED00E080B489B0EA
:1025800000AFF860B9607A60FB6803F00703FB6195
:10259000FB69C3F10703042B28BF0423BB61FB695C
:1025A0000433062B02D9FB69033B00E000237B6167
:1025B0004FF0FF32BB6902FA03F3DA43BB681A40FB
:1025C0007B699A404FF0FF317B6901FA03F3D943ED
:1025D0007B680B40134318462437BD4680BC7047C8
:1025E00080B582B000AF78607B68013BB3F1807F3B
:1025F00001D301230FE00A4A7B68013B53600F219E
:102600004FF0FF30FFF790FF054B00229A60044B1C
:1026100007221A60002318460837BD4680BD00BF58
:1026200010E000E080B582B000AF78607868FFF716
:102630002DFF00BF0837BD4680BD80B586B000AF16
:102640000346B9607A60FB7300237B61FFF742FFAA
:1026500078617A68B9687869FFF790FF024697F960
:102660000F3011461846FFF75FFF00BF1837BD4611
:1026700080BD80B582B000AF0346FB7197F907308B
:102680001846FFF735FF00BF0837BD4680BD80B54F
:1026900082B000AF78607868FFF7A2FF0346184663
:1026A0000837BD4680BD000080B48BB000AF7860B5
:1026B000396000237B6200233B6269E101227B6A6F
:1026C00002FA03F3FB613B681B68FA691340BB61C4
:1026D000BA69FB699A4240F058813B685B689A4A44
:1026E00093425ED0984A934275D8984A934258D004
:1026F000964A93426FD8964A934252D0944A934254
:1027000069D8944A93424CD0924A934263D8924AF1
:10271000934246D0904A93425DD8122B2AD8122B6E
:1027200059D801A252F823F0A32700087D270008FA
:102730008F270008D1270008D7270008D7270008CF
:10274000D7270008D7270008D7270008D727000871
:10275000D7270008D7270008D7270008D727000861
:10276000D7270008D7270008D727000885270008A3
:1027700099270008794A934213D02CE03B68DB6824
:102780003B6229E03B68DB6804333B6224E03B6842
:10279000DB6808333B621FE03B68DB680C333B625D
:1027A0001AE03B689B68002B02D104233B6213E0D4
:1027B0003B689B68012B05D108233B627B68FA6963
:1027C0001A6109E008233B627B68FA695A6103E0F9
:1027D00000233B6200E000BFBB69FF2B01D87B6890
:1027E00001E07B6804337B61BB69FF2B02D87B6A05
:1027F0009B0002E07B6A083B9B003B617B691A6897
:102800000F213B6901FA03F3DB431A40396A3B6944
:1028100001FA03F31A437B691A603B685B6803F0B3
:102820008053002B00F0B1804D4B9B694C4A43F024
:10283000010393614A4B9B6903F00103BB60BB68D2
:10284000484A7B6A9B08023352F82330FB607B6A5C
:1028500003F003039B000F2202FA03F3DB43FA6841
:102860001340FB607B68404A934213D07B683F4A29
:1028700093420DD07B683E4A934207D07B683D4A25
:10288000934201D1032306E0042304E0022302E083
:10289000012300E000237A6A02F0030292009340D1
:1028A000FA681343FB602F497B6A9B080233FA687E
:1028B00041F823203B685B6803F48033002B06D08B
:1028C0002D4B1A682C49BB6913430B6006E02A4B59
:1028D0001A68BB69DB43284913400B603B685B689F
:1028E00003F40033002B06D0234B5A682249BB69FE
:1028F00013434B6006E0204B5A68BB69DB431E491B
:1029000013404B603B685B6803F48013002B06D0D8
:10291000194B9A681849BB6913438B6006E0164B44
:102920009A68BB69DB43144913408B603B685B6862
:1029300003F40013002B21D00F4BDA680E49BB695A
:102940001343CB6021E000BF0000321000003110C3
:1029500000002210000021100000121000001110D1
:10296000001002400000014000080140000C01403E
:102970000010014000140140000401400B4BDA68D4
:10298000BB69DB4309491340CB607B6A01337B623F
:102990003B681A687B6A22FA03F3002B7FF48EAE41
:1029A00000BF00BF2C37BD4680BC7047000401400B
:1029B00080B483B000AF78600B467B8013467B7099
:1029C0007B78002B03D07A887B681A6103E07B88D0
:1029D0001A047B681A6100BF0C37BD4680BC704783
:1029E00080B485B000AF78600B467B807B68DB6885
:1029F000FB607A88FB6813401A04FB68D9437B8824
:102A00000B401A437B681A6100BF1437BD4680BC77
:102A10007047000080B584B000AF78607B68002B01
:102A200001D101232BE17B6893F83D30DBB2002B11
:102A300006D17B68002283F83C207868FFF72CFBE6
:102A40007B68242283F83D207B681B681A687B68BA
:102A50001B6822F001021A607B681B681A687B6899
:102A60001B6842F400421A607B681B681A687B6826
:102A70001B6822F400421A6003F032F8F8607B68A9
:102A80005B68814A934207D8FB68804A934294BFAF
:102A900001230023DBB206E0FB687D4A934294BF2A
:102AA00001230023DBB2002B01D00123E7E0FB6808
:102AB000784AA2FB03239B0CBB607B681B685B68A6
:102AC00023F03F017B681B68BA680A435A607B6841
:102AD0001B681B6A23F03F017B685B686A4A93426C
:102AE00002D8BB68013309E0BB684FF4967202FB61
:102AF00003F3694AA2FB03239B0901337A68126836
:102B00000B4313627B681B68DB6923F44F4222F09E
:102B1000FF027B685B685C498B4219D8FB68591ED1
:102B20007B685B685B00B1FBF3F3591C40F6FC73F8
:102B30000B40002B0AD0FB68591E7B685B685B006A
:102B4000B1FBF3F30133C3F30B0351E004234FE074
:102B50007B689B68002B11D1FB68581E7B68596805
:102B60000B465B000B44B0FBF3F30133C3F30B03E1
:102B7000002B0CBF01230023DBB212E0FB68581EC0
:102B80007B6859680B469B000B4499000B44B0FBD3
:102B9000F3F30133C3F30B03002B0CBF012300231A
:102BA000DBB2002B01D0012322E07B689B68002B65
:102BB0000ED1FB68581E7B6859680B465B000B44BE
:102BC000B0FBF3F30133C3F30B0343F400430FE013
:102BD000FB68581E7B6859680B469B000B449900A4
:102BE0000B44B0FBF3F30133C3F30B0343F4404353
:102BF000796809681343CB617B681B681B6823F005
:102C0000C0017B68DA697B681B6A1A437B681B68B2
:102C10000A431A607B681B689B6823F4034323F014
:102C2000FF037A6811697A68D26811437A6812687A
:102C30000B4393607B681B68DB6823F0FF017B68B4
:102C40005A697B689B691A437B681B680A43DA6090
:102C50007B681B681A687B681B6842F001021A6077
:102C60007B6800221A647B68202283F83D207B6801
:102C700000221A637B68002283F83E200023184656
:102C80001037BD4680BD00BFA08601007F841E00B6
:102C9000FF083D0083DE1B43D34D621080B588B032
:102CA00002AFF8607A601A460B467B8113463B817F
:102CB000FFF7BEFB7861FB6893F83D30DBB2202B59
:102CC00040F0E0807B690093192301227049F86885
:102CD00000F092FC0346002B01D00223D3E0FB68F6
:102CE00093F83C30012B01D10223CCE0FB68012298
:102CF00083F83C20FB681B681B6803F00103012B71
:102D000007D0FB681B681A68FB681B6842F0010269
:102D10001A60FB681B681A68FB681B6822F4006273
:102D20001A60FB68212283F83D20FB68102283F89B
:102D30003E20FB6800221A64FB687A685A62FB68CE
:102D40003A895A85FB685B8D9AB2FB681A85FB68E5
:102D5000504ADA6279897B693A6AF86800F0FCFACD
:102D60000346002B01D001238DE000233B61FB686B
:102D70001B685B693B61FB681B689B693B613B6946
:102D800066E07A69396AF86800F00CFD0346002BAA
:102D90000DD0FB681B6C042B07D1FB681B681A68FD
:102DA000FB681B6842F400721A6001236BE0FB6849
:102DB0005B6A1A78FB681B681A61FB685B6A5A1CBD
:102DC000FB685A62FB685B8D9BB2013B9AB2FB6861
:102DD0005A85FB681B8D013B9AB2FB681A85FB681C
:102DE0001B685B6903F00403042B1BD1FB681B8D7C
:102DF000002B17D0FB685B6A1A78FB681B681A61A6
:102E0000FB685B6A5A1CFB685A62FB685B8D9BB26D
:102E1000013B9AB2FB685A85FB681B8D013B9AB255
:102E2000FB681A857A69396AF86800F0FCFC034689
:102E3000002B0DD0FB681B6C042B07D1FB681B68B3
:102E40001A68FB681B6842F400721A6001231AE0DA
:102E5000FB681B8D002B94D1FB681B681A68FB680C
:102E60001B6842F400721A60FB68202283F83D2040
:102E7000FB68002283F83E20FB68002283F83C2098
:102E8000002300E0022318461837BD4680BD00BF6E
:102E9000020010000000FFFF80B58CB002AFF860A8
:102EA0007A601A460B467B8113463B8100233B62C6
:102EB000FFF7BEFA7862FB6893F83D30DBB2202B57
:102EC00040F03F827B6A0093192301227F49F86812
:102ED00000F092FB0346002B01D0022332E2FB6894
:102EE00093F83C30012B01D102232BE2FB68012235
:102EF00083F83C20FB681B681B6803F00103012B6F
:102F000007D0FB681B681A68FB681B6842F0010267
:102F10001A60FB681B681A68FB681B6822F4006271
:102F20001A60FB68222283F83D20FB68102283F898
:102F30003E20FB6800221A64FB687A685A62FB68CC
:102F40003A895A85FB685B8D9AB2FB681A85FB68E3
:102F50005F4ADA6279897B6A3A6BF86800F07EFA38
:102F60000346002B01D00123ECE1FB681B8D002BF5
:102F700013D10023FB61FB681B685B69FB61FB6885
:102F80001B689B69FB61FB69FB681B681A68FB682F
:102F90001B6842F400721A60C0E1FB681B8D012BB4
:102FA0001ED1FB681B681A68FB681B6822F48062EC
:102FB0001A6072B600BF0023BB61FB681B685B69C7
:102FC000BB61FB681B689B69BB61BB69FB681B68D5
:102FD0001A68FB681B6842F400721A6062B635E03A
:102FE000FB681B8D022B1ED1FB681B681A68FB68EF
:102FF0001B6842F400621A6072B600BF00237B6156
:10300000FB681B685B697B61FB681B689B697B6174
:103010007B69FB681B681A68FB681B6822F4806286
:103020001A6062B612E0FB681B681A68FB681B68CE
:1030300042F480621A6000233B61FB681B685B6995
:103040003B61FB681B689B693B613B6966E1FB6810
:103050001B8D032B00F21F81FB681B8D012B23D1DD
:103060007A6A396BF86800F01FFC0346002B01D028
:10307000012367E1FB681B681A69FB685B6AD2B2CF
:103080001A70FB685B6A5A1CFB685A62FB681B8DEE
:10309000013B9AB2FB681A85FB685B8D9BB2013BD2
:1030A0009AB2FB685A8539E1FB681B8D022B52D11D
:1030B0007B6A00933B6B00220649F86800F09CFA9B
:1030C0000346002B08D001233CE100BF02001000A2
:1030D0000000FFFF0400010072B600BFFB681B6820
:1030E0001A68FB681B6842F400721A60FB681B6870
:1030F0001A69FB685B6AD2B21A70FB685B6A5A1C79
:10310000FB685A62FB681B8D013B9AB2FB681A850B
:10311000FB685B8D9BB2013B9AB2FB685A8562B635
:1031200000BFFB681B681A69FB685B6AD2B21A7041
:10313000FB685B6A5A1CFB685A62FB681B8D013B8B
:103140009AB2FB681A85FB685B8D9BB2013B9AB211
:10315000FB685A85E2E07B6A00933B6B00227B4967
:10316000F86800F049FA0346002B01D00123E9E09A
:10317000FB681B681A68FB681B6822F480621A608F
:1031800072B600BFFB681B681A69FB685B6AD2B243
:103190001A70FB685B6A5A1CFB685A62FB681B8DDD
:1031A000013B9AB2FB681A85FB685B8D9BB2013BC1
:1031B0009AB2FB685A85664B1B68DB08654AA2FB1E
:1031C00003231A0A13469B001344DA00D31A3B6206
:1031D0003B6A013B3B623B6A002B18D1FB68002233
:1031E0001A63FB68202283F83D20FB68002283F8E5
:1031F0003E20FB681B6C43F02002FB681A6462B639
:1032000000BFFB68002283F83C2001239AE0FB68A2
:103210001B685B6903F00403042BD9D1FB681B68AE
:103220001A68FB681B6842F400721A60FB681B682E
:103230001A69FB685B6AD2B21A70FB685B6A5A1C37
:10324000FB685A62FB681B8D013B9AB2FB681A85CA
:10325000FB685B8D9BB2013B9AB2FB685A8562B6F4
:1032600000BFFB681B681A69FB685B6AD2B21A7000
:10327000FB685B6A5A1CFB685A62FB681B8D013B4A
:103280009AB2FB681A85FB685B8D9BB2013B9AB2D0
:10329000FB685A8542E07A6A396BF86800F004FBF3
:1032A0000346002B01D001234CE0FB681B681A6920
:1032B000FB685B6AD2B21A70FB685B6A5A1CFB68D7
:1032C0005A62FB681B8D013B9AB2FB681A85FB684A
:1032D0005B8D9BB2013B9AB2FB685A85FB681B6809
:1032E0005B6903F00403042B18D1FB681B681A699F
:1032F000FB685B6AD2B21A70FB685B6A5A1CFB6897
:103300005A62FB681B8D013B9AB2FB681A85FB6809
:103310005B8D9BB2013B9AB2FB685A85FB681B8DA3
:10332000002B7FF494AEFB68202283F83D20FB68DD
:10333000002283F83E20FB68002283F83C20002313
:1033400000E0022318462837BD4680BD0400010076
:103350000000002089B5F81480B588B002AFF8608D
:103360007A603B600B467B81FB68DB6A7B617B6933
:10337000082B06D07B69012B03D07B6913F5803FB6
:1033800008D1FB681B681A68FB681B6842F48072EE
:103390001A600BE0FB681B6B122B07D1FB681B68E4
:1033A0001A68FB681B6842F480721A603B680093DD
:1033B0007B6800224FF00111F86800F01DF9034608
:1033C000002B0DD0FB681B681B6803F48073B3F5FA
:1033D000807F03D1FB684FF400721A64032335E049
:1033E000FB681B69B3F5804F08D17B89DBB21A46B5
:1033F000FB681B6802F0FE021A611BE07B89DB118F
:10340000DBB203F00603DBB263F00F03DAB2FB6852
:103410001B681A613B687A680E49F86800F043F946
:103420000346002B01D0012310E07B89DAB2FB6850
:103430001B681A613B687A680749F86800F033F93D
:103440000346002B01D0012300E000231846183763
:10345000BD4680BD080001000200010080B588B0B3
:1034600002AFF8607A603B600B467B81FB68DB6AE9
:103470007B61FB681B681A68FB681B6842F480620A
:103480001A607B69082B06D07B69012B03D07B690E
:1034900013F5803F08D1FB681B681A68FB681B683E
:1034A00042F480721A600BE0FB681B6B112B07D192
:1034B000FB681B681A68FB681B6842F480721A601C
:1034C0003B6800937B6800224FF00111F86800F020
:1034D00093F80346002B0DD0FB681B681B6803F4B0
:1034E0008073B3F5807F03D1FB684FF400721A64D8
:1034F000032379E0FB681B69B3F5804F08D17B8912
:10350000DBB243F00103DAB2FB681B681A615FE0CB
:103510007B89DB11DBB203F00603DBB263F00F0340
:10352000DAB2FB681B681A613B687A683049F86850
:1035300000F0B9F80346002B01D0012354E07B8949
:10354000DAB2FB681B681A613B687A682949F86837
:1035500000F0A9F80346002B01D0012344E000232A
:103560003B61FB681B685B693B61FB681B689B698F
:103570003B613B69FB681B681A68FB681B6842F487
:1035800080721A603B6800937B6800224FF0011143
:10359000F86800F031F80346002B0DD0FB681B687B
:1035A0001B6803F48073B3F5807F03D1FB684FF48D
:1035B00000721A64032317E07B89DB11DBB203F08E
:1035C0000603DBB263F00E03DAB2FB681B681A6114
:1035D0003B687A680749F86800F065F80346002BF5
:1035E00001D0012300E0002318461837BD4680BDF6
:1035F000080001000200010080B584B000AFF8604F
:10360000B9603B601346FB7125E03B68B3F1FF3FB7
:1036100021D0FEF70DFF0246BB69D31A3A689A42E1
:1036200002D33B68002B16D1FB6800221A63FB68AB
:10363000202283F83D20FB68002283F83E20FB68AF
:103640001B6C43F02002FB681A64FB68002283F8BD
:103650003C20012323E0BB681B0CDBB2012B0DD106
:10366000FB681B685B69DA43BB6813409BB2002BA5
:103670000CBF01230023DBB21A460CE0FB681B6879
:103680009B69DA43BB6813409BB2002B0CBF01233C
:103690000023DBB21A46FB799A42B6D000231846C3
:1036A0001037BD4680BD80B584B000AFF860B9600A
:1036B0007A603B6051E0FB681B685B6903F48063E0
:1036C000B3F5806F23D1FB681B681A68FB681B6821
:1036D00042F400721A60FB681B686FF480625A61E2
:1036E000FB6800221A63FB68202283F83D20FB68F8
:1036F000002283F83E20FB681B6C43F00402FB6849
:103700001A64FB68002283F83C20012346E07B68B2
:10371000B3F1FF3F21D0FEF78BFE02463B68D31A80
:103720007A689A4202D37B68002B16D1FB6800228C
:103730001A63FB68202283F83D20FB68002283F88F
:103740003E20FB681B6C43F02002FB681A64FB6898
:10375000002283F83C20012320E0BB681B0CDBB275
:10376000012B0CD1FB681B685B69DA43BB68134013
:103770009BB2002B14BF01230023DBB20BE0FB68DC
:103780001B689B69DA43BB6813409BB2002B14BFD4
:1037900001230023DBB2002B8DD100231846103704
:1037A000BD4680BD80B584B000AFF860B9607A6076
:1037B0002DE0F86800F0CEF80346002B01D001237D
:1037C0002DE0BB68B3F1FF3F21D0FEF731FE02468A
:1037D0007B68D31ABA689A4202D3BB68002B16D111
:1037E000FB6800221A63FB68202283F83D20FB68F7
:1037F000002283F83E20FB681B6C43F02002FB682C
:103800001A64FB68002283F83C20012307E0FB6870
:103810001B685B6903F08003802BCAD10023184624
:103820001037BD4680BD80B584B000AFF860B96088
:103830007A602DE0F86800F08DF80346002B01D087
:1038400001232DE0BB68B3F1FF3F21D0FEF7F0FD6F
:1038500002467B68D31ABA689A4202D3BB68002B2F
:1038600016D1FB6800221A63FB68202283F83D20F2
:10387000FB68002283F83E20FB681B6C43F02002AB
:10388000FB681A64FB68002283F83C20012307E0F0
:10389000FB681B685B6903F00403042BCAD1002397
:1038A00018461037BD4680BD80B584B000AFF860C3
:1038B000B9607A6042E0FB681B685B6903F0100343
:1038C000102B19D1FB681B686FF010025A61FB685E
:1038D00000221A63FB68202283F83D20FB68002247
:1038E00083F83E20FB681A6CFB681A64FB680022B0
:1038F00083F83C20012329E0FEF79AFD02467B680D
:10390000D31ABA689A4202D3BB68002B16D1FB685F
:1039100000221A63FB68202283F83D20FB68002206
:1039200083F83E20FB681B6C43F02002FB681A649E
:10393000FB68002283F83C20012307E0FB681B683A
:103940005B6903F04003402BB5D1002318461037C4
:10395000BD4680BD80B483B000AF78607B681B68D3
:103960005B6903F48063B3F5806F1BD17B681B68D0
:103970006FF480625A617B6800221A637B682022A0
:1039800083F83D207B68002283F83E207B681B6C17
:1039900043F004027B681A647B68002283F83C20B1
:1039A000012300E0002318460C37BD4680BC704759
:1039B000F0B58BB006AF78607B68002B01D1012396
:1039C000FDE07B6893F8A932DBB2002B06D17B685F
:1039D000002283F8A822786807F0EEF97B680322BA
:1039E00083F8A9227B681B68184602F0DCFE7B681E
:1039F0001B683B607E686D4606F110040FCC0FC556
:103A000023682B60331D0ECB386802F0A6FE0346F8
:103A1000002B05D07B68022283F8A9220123CEE087
:103A20007B681B680021184602F0D7FE0023FB7359
:103A30004CE0FB7B79685A1C13469B001344DB0067
:103A40000B44013301221A70FB7B79685A1C134620
:103A50009B001344DB000B44FA7B1A70FA7BFB7B60
:103A600098B2796813469B001344DB000B4436334D
:103A700002461A80FB7B79685A1C13469B0013444C
:103A8000DB000B44033300221A70FA7B796813467B
:103A90009B001344DB000B44383300221A60FA7B8E
:103AA000796813469B001344DB000B443C3300222F
:103AB0001A60FA7B796813469B001344DB000B44C1
:103AC000403300221A60FB7B0133FB73FA7B7B6877
:103AD0005B689A42ADD30023FB7344E0FA7B7968BC
:103AE00013469B001344DB000B4403F269130022CE
:103AF0001A70FA7B796813469B001344DB000B4471
:103B000003F5B473FA7B1A70FA7B796813469B004D
:103B10001344DB000B4403F26B1300221A70FA7B90
:103B2000796813469B001344DB000B4403F5BC7318
:103B300000221A60FA7B796813469B001344DB006D
:103B40000B4403F5BE7300221A60FA7B79681346B2
:103B50009B001344DB000B4403F5C07300221A6082
:103B6000FB7B0133FB73FA7B7B685B689A42B5D3BE
:103B70007B681B683B607E686D4606F110040FCCC5
:103B80000FC523682B60331D0ECB386802F031FE61
:103B90000346002B05D07B68022283F8A92201236B
:103BA0000DE07B68002283F824207B68012283F8E3
:103BB000A9227B681B68184605F0E4FA0023184622
:103BC0001437BD46F0BD80B582B000AF78607B6829
:103BD00093F8A832012B01D1022316E07B68012261
:103BE00083F8A8227B681B68184602F0C6FD0121F5
:103BF000786807F054FB7B681B68184605F0B8FA34
:103C00007B68002283F8A822002318460837BD46A7
:103C100080BD80B588B000AF78607B681B681846AF
:103C200005F0BAFA034603F40043B3F5004F02D19E
:103C3000786800F05FFB7B681B68184605F0ACFAFB
:103C4000034603F48063B3F5806F12D17B681B6871
:103C5000B3F844309AB27B681B6822F4806292B257
:103C6000A3F84420786807F022F90021786800F072
:103C700023F97B681B68184605F08EFA034603F4A7
:103C80008043B3F5804F0BD17B681B68B3F8443099
:103C90009AB27B681B6822F4804292B2A3F8442057
:103CA0007B681B68184605F077FA034603F4005357
:103CB000B3F5005F0BD17B681B68B3F844309AB250
:103CC0007B681B6822F4005292B2A3F844207B6800
:103CD0001B68184605F060FA034603F48053B3F5F9
:103CE000805F26D17B681B68B3F840309AB27B684E
:103CF0001B6822F0040292B2A3F840207B681B6884
:103D0000B3F840309AB27B681B6822F0080292B286
:103D1000A3F84020786807F003F97B681B68B3F8C4
:103D200044309AB27B681B6822F4805292B2A3F8A6
:103D300044207B681B68184605F02EFA034603F4FE
:103D40000063B3F5006F40F082800023FB7710E042
:103D50007B681B681A46FB7F9B001A44FB7F128816
:103D600092B25B0020333B4423F8142CFB7F0133D9
:103D7000FB77FB7F072BEBD97B681B68B3F84030E0
:103D80009AB27B681B6842F0010292B2A3F840200D
:103D90007B681B68B3F840309AB27B681B6822F0DE
:103DA000010292B2A3F8402000BF7B681B68B3F801
:103DB00044309BB203F48063002BF6D07B681B6811
:103DC000B3F844309AB27B681B6822F4806292B2E6
:103DD000A3F844200023FB770FE0FB7F7A6812688A
:103DE0001146FA7F92000A445B0020333B4433F8CB
:103DF000143C1380FB7F0133FB77FB7F072BECD94F
:103E00007B681B68B3F840309AB27B681B6842F04D
:103E1000080292B2A3F840207B681B68B3F84430D4
:103E20009AB27B681B6822F4006292B2A3F8442025
:103E30007B681B68B3F840309AB27B681B6842F01D
:103E4000040292B2A3F84020786807F04FF87B682C
:103E50001B68184605F0A0F9034603F40073B3F598
:103E6000007F0ED17B681B68B3F844309AB27B6840
:103E70001B6822F4007292B2A3F84420786807F01D
:103E800008F87B681B68184605F086F9034603F4BA
:103E90008073B3F5807F0BD17B681B68B3F8443027
:103EA0009AB27B681B6822F4807292B2A3F8442015
:103EB00000BF2037BD4680BD80B582B000AF7860BE
:103EC0000B46FB707B6893F8A832012B01D10223CB
:103ED00013E07B68012283F8A8227B68FA7883F8D4
:103EE00024207B681B68FA781146184605F02DF9E6
:103EF0007B68002283F8A822002318460837BD46B5
:103F000080BD80B584B000AF7860084611461A467F
:103F10000346FB700B463B801346BB700023FB72CD
:103F200097F90330002B0EDAFB7803F007035A1CD5
:103F300013469B001344DB007A681344FB60FB6864
:103F400001225A700EE0FB7803F0070213469B0033
:103F50001344DB0003F5B4737A681344FB60FB6819
:103F600000225A70FB7803F00703DAB2FB681A707C
:103F70003A88FB681A61FB68BA78DA70FB685B788C
:103F8000002B04D0FB681B789AB2FB68DA81BB78FF
:103F9000022B02D1FB6800221A717B6893F8A832C9
:103FA000012B01D102230EE07B68012283F8A822B5
:103FB0007B681B68F968184602F03CFC7B680022AD
:103FC00083F8A822FB7A18461037BD4680BD80B51D
:103FD00084B000AF78600B46FB7097F90330002B7C
:103FE0000EDAFB7803F007035A1C13469B001344B8
:103FF000DB007A681344FB60FB6801225A700EE014
:10400000FB7803F0070213469B001344DB0003F523
:10401000B4737A681344FB60FB6800225A70FB7823
:1040200003F00703DAB2FB681A707B6893F8A832D2
:10403000012B01D102230EE07B68012283F8A82224
:104040007B681B68F968184602F05EFF7B680022F7
:1040500083F8A822002318461037BD4680BD80B5DE
:1040600086B000AFF8607A603B600B46FB72FB7A6B
:1040700003F0070213469B001344DB0003F5B473FF
:10408000FA6813447B617B697A685A617B693A6894
:104090009A617B690022DA617B6900225A70FB7A9F
:1040A00003F00703DAB27B691A70FB7A03F00703A7
:1040B000002B06D1FB681B687969184603F010F9DC
:1040C00005E0FB681B687969184603F009F90023CD
:1040D00018461837BD4680BD80B483B000AF786005
:1040E0000B46FB70FB7803F00702796813469B00D0
:1040F0001344DB000B4403F5C2731B6818460C37EE
:10410000BD4680BC704780B586B000AFF8607A606D
:104110003B600B46FB72FB7A03F007035A1C134605
:104120009B001344DB00FA6813447B617B697A6867
:104130005A617B693A689A617B69012283F824207D
:104140007B693A681A627B690022DA617B69012225
:104150005A70FB7A03F00703DAB27B691A70FB7AB4
:1041600003F00703002B06D1FB681B68796918462A
:1041700003F0B6F805E0FB681B687969184603F0A0
:10418000AFF8002318461837BD4680BD80B584B00F
:1041900000AF78600B46FB70FB7803F007027B688A
:1041A0005B689A4201D901234CE097F90330002B58
:1041B0000EDAFB7803F007035A1C13469B001344E6
:1041C000DB007A681344FB60FB6801225A700CE044
:1041D000FA7813469B001344DB0003F5B4737A6846
:1041E0001344FB60FB6800225A70FB6801229A703E
:1041F000FB7803F00703DAB2FB681A707B6893F868
:10420000A832012B01D102231CE07B68012283F834
:10421000A8227B681B68F968184604F099FEFB78B1
:1042200003F00703002B08D17B681A687B6803F54D
:104230002C731946104604F0BEFF7B68002283F8F9
:10424000A822002318461037BD4680BD80B584B033
:1042500000AF78600B46FB70FB7803F00F027B68C1
:104260005B689A4201D9012340E097F90330002BA3
:104270000EDAFB7803F007035A1C13469B00134425
:10428000DB007A681344FB60FB6801225A700EE081
:10429000FB7803F0070213469B001344DB0003F591
:1042A000B4737A681344FB60FB6800225A70FB68A1
:1042B00000229A70FB7803F00703DAB2FB681A70E9
:1042C0007B6893F8A832012B01D102230EE07B68B2
:1042D000012283F8A8227B681B68F968184604F05D
:1042E00087FE7B68002283F8A82200231846103737
:1042F000BD4680BD80B58EB000AF7860ECE27B68D3
:104300001B68B3F84430FB85FB8DDBB203F00F0371
:1043100087F82D3097F82D30002B40F06181FB8D10
:1043200003F01003002B52D17B681B681B889BB2E3
:1043300023F4E14323F07003FB817B681A68FB8957
:104340006FEA43436FEA53439BB213807B68283381
:104350007B627B681B68B3F850309BB21A467B6A5D
:104360001B78DB00134402335B007A681268134445
:1043700003F580631B88C3F309027B6ADA617B6AF9
:104380005A697B6ADB691A447B6A5A610021786842
:1043900006F065FD7B6893F82430DBB2002B00F05B
:1043A0009B827B6A9B69002B40F096827B6893F826
:1043B0002430DBB263F07F03DAB27B681B6892B211
:1043C000A3F84C207B68002283F8242084E27B68D9
:1043D00003F5B4737B627B681B681B887B857B8DD0
:1043E00003F40063002B34D07B681B68B3F85030B3
:1043F0009BB21A467B6A1B78DB00134406335B00D2
:104400007A681268134403F580631B88C3F30902BA
:104410007B6ADA617B6818687B6803F52C717B6ABC
:10442000DA887B6ADB699BB204F015FF7B681B6846
:104430001B889AB240F68F7313403B827B681B68DF
:104440003A8A42F0800292B21A80786806F0DAFC6A
:1044500042E2B7F92A30002B80F23E827B681B686B
:104460001B889AB240F68F731340BB837B681B682E
:10447000BA8B42F0800292B21A807B681B68B3F854
:1044800050309BB21A467B6A1B78DB00134406331C
:104490005B007A681268134403F580631B88C3F3DA
:1044A00009027B6ADA617B6ADB69002B19D07B6ABF
:1044B0005B69002B15D07B6818687B6A59697B6A39
:1044C000DA887B6ADB699BB204F0C5FE7B6A5A69B5
:1044D0007B6ADB691A447B6A5A610021786806F0BE
:1044E000A3FC7B681B681B889BB203F40063002B52
:1044F00040F0F2817B681B68BB617B681B68B3F886
:1045000050309BB21A46BB691344BB61BB6903F2CE
:104510000C437B617B6A1B69002B12D17B691B8872
:104520009BB223F4F8439AB27B691A807B691B889B
:104530009BB26FEA43436FEA53439AB27B691A8096
:104540002FE07B6A1B693E2B13D87B6A1B695B08D3
:104550003B637B6A1B6903F00103002B02D03B6BBA
:1045600001333B633B6B9BB29B029AB27B691A801F
:1045700017E07B6A1B695B093B637B6A1B6903F07D
:104580001F03002B02D13B6B013B3B633B6B9BB298
:104590009B029BB26FEA43436FEA53439AB27B6933
:1045A0001A807B681B681B889BB223F4804323F02E
:1045B00070037B827B8A83F480537B827B8A83F4C3
:1045C00000537B827B681A687B8A43F07F4343F405
:1045D0007F0343F4004343F080039BB213807BE1ED
:1045E0007B681B681A4697F82D309B0013441B8884
:1045F0007B85B7F92A30002B80F2EA807B681B6844
:104600001A4697F82D309B0013441B889AB240F647
:104610008F7313403B857B681B681A4697F82D30D3
:104620009B0013443A8D42F0800292B21A8097F8B0
:104630002D2013469B001344DB0003F5B4737A6806
:1046400013447B627B6A1B7B002B22D17B681B6837
:10465000B3F850309BB21A467B6A1B78DB001344D8
:1046600006335B007A681268134403F580631B8885
:10467000C3F30903FB86FB8E002B00F087807B6869
:1046800018687B6A59697B6ADA88FB8E04F0E3FD5F
:104690007CE07B6ADB78022B08D17B8D1A46796A35
:1046A000786800F027F90346FB866FE07B681B689B
:1046B0001A467B6A1B789B0013441B889BB223F429
:1046C000E04323F070037B847B681B681A467B6A97
:1046D0001B789B001A447B8C43F07F4343F47F0399
:1046E00043F4004343F0C0039BB213807B681B6814
:1046F0001A467B6A1B789B0013441B889BB203F409
:104700008043002B21D07B681B68B3F850309BB2EC
:104710001A467B6A1B78DB00134402335B007A681D
:104720001268134403F580631B88C3F30903FB86F7
:10473000FB8E002B2AD07B6818687B6A59697B6ADC
:104740001A89FB8E04F087FD20E07B681B68B3F8B4
:1047500050309BB21A467B6A1B78DB001344063349
:104760005B007A681268134403F580631B88C3F307
:104770000903FB86FB8E002B08D07B6818687B6AD8
:1047800059697B6A5A89FB8E04F065FD7B6ADA6998
:10479000FB8E1A447B6ADA617B6A5A69FB8E1A4483
:1047A0007B6A5A617B6A9B69002B04D0FA8E7B6A14
:1047B0001B699A4206D27B6A1B781946786806F014
:1047C00033FB05E07B681B68796A184602F088FDB8
:1047D0007B8D03F08003002B7ED097F82D305A1C80
:1047E00013469B001344DB007A6813447B627B68AA
:1047F0001B681A4697F82D309B0013441B889BB208
:1048000023F4E14323F070033B847B681B681A4662
:1048100097F82D309B001A443B8C6FEA43436FEAB4
:1048200053439BB213807B6ADB78032B0CD07B6AEB
:10483000DB78002B08D07B6ADB78022B46D17B8D9E
:1048400003F48073002B41D17B681B68B3F85030B0
:104850009BB21A467B6A1B78DB00134402335B0071
:104860007A681268134403F580631B88C3F3090355
:10487000FB837B6A9A69FB8B9A4206D97B6A9A69A9
:10488000FB8BD21A7B6A9A6102E07B6A00229A61F2
:104890007B6A9B69002B06D17B6A1B781946786876
:1048A00006F0DDFA18E07B6A5A69FB8B1A447B6AD2
:1048B0005A617B6ADA69FB8B1A447B6ADA617B682E
:1048C0001B68796A184602F00BFD05E07B8D1A46DD
:1048D000796A786800F01BF97B681B68B3F844308C
:1048E0009BB21BB2002BFFF60AAD002318463837E7
:1048F000BD4680BD80B588B000AFF860B960134692
:10490000FB80FB8803F48043002B7ED0FB681B6890
:10491000B3F850309BB21A46BB681B78DB001344D7
:1049200002335B00FA681268134403F580631B8846
:10493000C3F309037B83BB689A697B8B9A4206D3D6
:10494000BB689A697B8BD21ABB689A6102E0BB682C
:1049500000229A61BB689B69002B23D1FB681B680E
:104960001A46BB681B789B0013441B889BB223F438
:10497000804323F070033B833B8B83F400533B83E2
:10498000FB681B681A46BB681B789B001A443B8B6C
:1049900043F07F4343F47F0343F4004343F0800339
:1049A0009BB21380FB8803F04003002B1FD0FB68F1
:1049B0001B681A46BB681B789B0013441B889BB27C
:1049C00023F4E04323F07003FB82FB681B681A4664
:1049D000BB681B789B001A44FB8A43F07F4343F477
:1049E0007F0343F4004343F0C0039BB213807B8BEF
:1049F000002B00F08780FB681868BB685969BB68AA
:104A00001A897B8B04F027FC7CE0FB681B68B3F8F9
:104A100050309BB21A46BB681B78DB001344063348
:104A20005B00FA681268134403F580631B88C3F3C4
:104A300009037B83BB689A697B8B9A4206D3BB6868
:104A40009A697B8BD21ABB689A6102E0BB6800222C
:104A50009A61BB689B69002B23D1FB681B681A46CF
:104A6000BB681B789B0013441B889BB223F48043D4
:104A700023F07003FB83FB8B83F40053FB83FB6801
:104A80001B681A46BB681B789B001A44FB8B43F0DB
:104A90007F4343F47F0343F4004343F080039BB21E
:104AA0001380FB8803F04003002B1FD1FB681B68B9
:104AB0001A46BB681B789B0013441B889BB223F4E7
:104AC000E04323F07003BB83FB681B681A46BB6896
:104AD0001B789B001A44BB8B43F07F4343F47F0356
:104AE00043F4004343F0C0039BB213807B8B002B45
:104AF00008D0FB681868BB685969BB685A897B8B0A
:104B000004F0A9FB7B8B18462037BD4680BD80B5DD
:104B1000A2B000AFF860B9601346FB80FB8803F0D9
:104B20004003002B00F0C781FB681B68B3F85030CE
:104B30009BB21A46BB681B78DB00134402335B0050
:104B4000FA681268134403F580631B88C3F30903F2
:104B5000A7F84E30BB689A69B7F84E309A4207D929
:104B6000BB689A69B7F84E30D21ABB689A6102E006
:104B7000BB6800229A61BB689B69002B40F0B9803A
:104B8000BB685B78002B26D1FB681B68BB62FB68A7
:104B90001B68B3F850309BB21A46BB6A1344BB6221
:104BA000BB681B781A01BB6A134403F204437B629F
:104BB0007B6A1B889BB223F4F8439AB27B6A1A8003
:104BC0007B6A1B889BB26FEA43436FEA53439AB2F6
:104BD0007B6A1A801AE0BB685B78012B16D1FB68F0
:104BE0001B683B63FB681B68B3F850309BB21A46E6
:104BF0003B6B13443B63BB681B781A013B6B13444C
:104C000003F20443FB62FB6A00221A80FB681B6804
:104C10003B62BB685B78002B26D1FB681B68BB61DD
:104C2000FB681B68B3F850309BB21A46BB6913444B
:104C3000BB61BB681B781A01BB69134403F20C43C8
:104C40007B617B691B889BB223F4F8439AB27B6932
:104C50001A807B691B889BB26FEA43436FEA534318
:104C60009AB27B691A8017E0BB685B78012B13D17D
:104C7000FB681B68B3F850309BB21A463B6A13447A
:104C80003B62BB681B781A013B6A134403F20C4376
:104C9000FB61FB6900221A80BB681B781946F86823
:104CA00006F0DDF8FB8803F48043002B00F0D4828B
:104CB000FB681B681A46BB681B789B0013441B8863
:104CC0009BB223F4E04323F070037B82FB681B68F4
:104CD0001A46BB681B789B001A447B8A43F07F43CB
:104CE00043F47F0343F4404343F080039BB21380BB
:104CF000B2E2FB8803F48043002B21D0FB681B68E1
:104D00001A46BB681B789B0013441B889BB223F494
:104D1000E04323F07003A7F84430FB681B681A4691
:104D2000BB681B789B001A44B7F8443043F07F43BC
:104D300043F47F0343F4404343F080039BB213806A
:104D4000BB6893F82430012B40F08682BB685A6917
:104D5000B7F84E301A44BB685A61BB68DA69B7F8D5
:104D60004E301A44BB68DA61BB681A6ABB681B69BB
:104D70009A4209D3BB681B693B65BB681A6A3B6DE5
:104D8000D21ABB681A6215E0BB681B6A002B07D1F8
:104D9000B7F84E303B65BB68002283F8242009E059
:104DA000BB68002283F82420BB681B6A3B65BB6894
:104DB00000221A62BB685B78002B55D1FB681B6828
:104DC000BB63FB681B68B3F850309BB21A46BB6BE1
:104DD0001344BB63BB681B781A01BB6B134403F21B
:104DE00004437B633B6D002B12D17B6B1B889BB212
:104DF00023F4F8439AB27B6B1A807B6B1B889BB2BF
:104E00006FEA43436FEA53439AB27B6B1A8047E0E1
:104E10003B6D3E2B11D83B6D5B08BB643B6D03F0D3
:104E20000103002B02D0BB6C0133BB64BB6C9BB293
:104E30009B029AB27B6B1A8032E03B6D5B09BB64CC
:104E40003B6D03F01F03002B02D1BB6C013BBB6425
:104E5000BB6C9BB29B029BB26FEA43436FEA534326
:104E60009AB27B6B1A801BE0BB685B78012B17D171
:104E7000FB681B683B64FB681B68B3F850309BB24F
:104E80001A463B6C13443B64BB681B781A013B6CAD
:104E9000134403F20443FB633B6D9AB2FB6B1A802D
:104EA000FB681868BB685969BB681A893B6D9BB27F
:104EB00004F08CF9D0E1FB681B68B3F850309BB26A
:104EC0001A46BB681B78DB00134406335B00FA68A4
:104ED0001268134403F580631B88C3F30903A7F822
:104EE0004E30BB689A69B7F84E309A4207D3BB6818
:104EF0009A69B7F84E30D21ABB689A6102E0BB6873
:104F000000229A61BB689B69002B40F0C480BB689B
:104F10005B78002B26D1FB681B68FB66FB681B686F
:104F2000B3F850309BB21A46FB6E1344FB66BB6865
:104F30001B781A01FB6E134403F20443BB66BB6E7D
:104F40001B889BB223F4F8439AB2BB6E1A80BB6EE7
:104F50001B889BB26FEA43436FEA53439AB2BB6E1E
:104F60001A801AE0BB685B78012B16D1FB681B68BE
:104F70007B67FB681B68B3F850309BB21A467B6FA7
:104F800013447B67BB681B781A017B6F134403F2E1
:104F900004433B673B6F00221A80FB681B68BB67BA
:104FA000BB685B78002B2FD1FB681B68C7F880308B
:104FB000FB681B68B3F850309BB21A46D7F88030B4
:104FC0001344C7F88030BB681B781A01D7F88030CB
:104FD000134403F20C43C7F88430D7F884301B889D
:104FE0009BB223F4F8439AB2D7F884301A80D7F8EA
:104FF00084301B889BB26FEA43436FEA53439AB2F3
:10500000D7F884301A8017E0BB685B78012B13D186
:10501000FB681B68B3F850309BB21A46BB6F134451
:10502000BB67BB681B781A01BB6F134403F20C43C8
:10503000FB67FB6F00221A80BB681B781946F86873
:1050400005F00DFFFB8803F48043002B40F0048142
:10505000FB681B681A46BB681B789B0013441B88BF
:105060009BB223F4E04323F07003A7F84630FB68BB
:105070001B681A46BB681B789B001A44B7F8463079
:1050800043F07F4343F47F0343F4404343F0800302
:105090009BB21380E0E0FB8803F48043002B21D116
:1050A000FB681B681A46BB681B789B0013441B886F
:1050B0009BB223F4E04323F07003A7F84C30FB6865
:1050C0001B681A46BB681B789B001A44B7F84C3023
:1050D00043F07F4343F47F0343F4404343F08003B2
:1050E0009BB21380BB6893F82430012B40F0B4804E
:1050F000BB685A69B7F84E301A44BB685A61BB683E
:10510000DA69B7F84E301A44BB68DA61BB681A6ACC
:10511000BB681B699A4209D3BB681B693B65BB68C6
:105120001A6A3B6DD21ABB681A6215E0BB681B6A2B
:10513000002B07D1B7F84E303B65BB68002283F8DF
:10514000242009E0BB681B6A3B65BB6800221A6229
:10515000BB68002283F82420FB681B687B66BB6861
:105160005B78002B55D1FB681B68FB65FB681B68EF
:10517000B3F850309BB21A46FB6D1344FB65BB6815
:105180001B781A01FB6D134403F20C43BB653B6DA6
:10519000002B12D1BB6D1B889BB223F4F8439AB24B
:1051A000BB6D1A80BB6D1B889BB26FEA43436FEAED
:1051B00053439AB2BB6D1A8044E03B6D3E2B11D82D
:1051C0003B6D5B087B653B6D03F00103002B02D058
:1051D0007B6D01337B657B6D9BB29B029AB2BB6D8D
:1051E0001A802FE03B6D5B097B653B6D03F01F036D
:1051F000002B02D17B6D013B7B657B6D9BB29B02DB
:105200009BB26FEA43436FEA53439AB2BB6D1A8075
:1052100018E0BB685B78012B14D1FB681B68B3F8FE
:1052200050309BB21A467B6E13447B66BB681B787A
:105230001A017B6E134403F20C433B663B6D9AB23A
:105240003B6E1A80FB681868BB685969BB685A894D
:105250003B6D9BB203F0BAFFFB681B681A46BB6844
:105260001B789B0013441B889BB223F4E04323F07C
:1052700040033B823B8A83F010033B823B8A83F0EE
:1052800020033B82FB681B681A46BB681B789B00A7
:105290001A443B8A43F07F4343F47F0343F40043C3
:1052A00043F080039BB21380002318468837BD4625
:1052B00080BD80B487B000AFF8607B600B467B8117
:1052C00013463B817B8903F080039BB2002B0BD0FC
:1052D0007B8903F007035A1C13469B001344DB0031
:1052E000FA6813447B6109E07A8913469B001344F2
:1052F000DB0003F5B473FA6813447B613B89002B30
:1053000007D17B6900221A737B689AB27B69DA80C5
:105310000BE07B6901221A737B689AB27B691A8160
:105320007B681B0C9AB27B695A81002318461C3794
:10533000BD4680BC7047000080B586B000AF786085
:105340007B68002B01D1012372E27B681B6803F0AC
:105350000103002B00F08780924B5B6803F00C0385
:10536000042B0CD08F4B5B6803F00C03082B12D17D
:105370008C4B5B6803F48033B3F5803F0BD1894BD2
:105380001B6803F40033002B6CD07B685B68002B38
:1053900068D101234CE27B685B68B3F5803F06D19E
:1053A000804B1B687F4A43F4803313602EE07B6898
:1053B0005B68002B0CD17B4B1B687A4A23F480334B
:1053C0001360784B1B68774A23F4802313601DE039
:1053D0007B685B68B3F5A02F0CD1724B1B68714AD8
:1053E00043F4802313606F4B1B686E4A43F4803391
:1053F00013600BE06B4B1B686A4A23F48033136025
:10540000684B1B68674A23F4802313607B685B68E2
:10541000002B13D0FDF70CF8386108E0FDF708F811
:1054200002463B69D31A642B01D9032300E25D4B8A
:105430001B6803F40033002BF0D014E0FCF7F8FFF6
:10544000386108E0FCF7F4FF02463B69D31A642B8D
:1054500001D90323ECE1534B1B6803F40033002B09
:10546000F0D100E000BF7B681B6803F00203002B53
:1054700063D04C4B5B6803F00C03002B0BD0494B03
:105480005B6803F00C03082B1CD1464B5B6803F4EC
:105490008033002B16D1434B1B6803F00203002B13
:1054A00005D07B681B69012B01D00123C0E13D4B76
:1054B0001B6823F0F8027B685B69DB003949134302
:1054C0000B603AE07B681B69002B20D0364B012231
:1054D0001A60FCF7ADFF386108E0FCF7A9FF02464F
:1054E0003B69D31A022B01D90323A1E12D4B1B6881
:1054F00003F00203002BF0D02A4B1B6823F0F802C4
:105500007B685B69DB00274913430B6015E0264B82
:1055100000221A60FCF78CFF386108E0FCF788FF76
:1055200002463B69D31A022B01D9032380E11D4BAC
:105530001B6803F00203002BF0D17B681B6803F0AB
:105540000803002B3AD07B689B69002B19D0174BBE
:1055500001221A60FCF76CFF386108E0FCF768FF75
:1055600002463B69D31A022B01D9032360E10D4B9C
:105570005B6A03F00203002BF0D0012000F0C4FAB4
:105580001CE00A4B00221A60FCF752FF38610FE062
:10559000FCF74EFF02463B69D31A022B08D90323BE
:1055A00046E100BF00100240000042428004424237
:1055B000924B5B6A03F00203002BE9D17B681B6806
:1055C00003F00403002B00F0A6800023FB758B4B37
:1055D000DB6903F08053002B0DD1884BDB69874AD0
:1055E00043F08053D361854BDB6903F08053BB608C
:1055F000BB680123FB75824B1B6803F48073002B8F
:1056000018D17F4B1B687E4A43F480731360FCF70C
:105610000FFF386108E0FCF70BFF02463B69D31A25
:10562000642B01D9032303E1754B1B6803F48073DA
:10563000002BF0D07B68DB68012B06D16F4B1B6A17
:105640006E4A43F0010313622DE07B68DB68002B98
:105650000CD16A4B1B6A694A23F001031362674B42
:105660001B6A664A23F0040313621CE07B68DB6854
:10567000052B0CD1614B1B6A604A43F00403136293
:105680005E4B1B6A5D4A43F0010313620BE05B4B08
:105690001B6A5A4A23F001031362584B1B6A574A8C
:1056A00023F0040313627B68DB68002B15D0FCF742
:1056B000BFFE38610AE0FCF7BBFE02463B69D31A25
:1056C00041F28832934201D90323B1E04B4B1B6A6C
:1056D00003F00203002BEED014E0FCF7A9FE3861C2
:1056E0000AE0FCF7A5FE02463B69D31A41F2883274
:1056F000934201D903239BE0404B1B6A03F0020352
:10570000002BEED1FB7D012B05D13C4BDB693B4AE5
:1057100023F08053D3617B68DB69002B00F0878026
:10572000364B5B6803F00C03082B61D07B68DB69A8
:10573000022B46D1334B00221A60FCF779FE386108
:1057400008E0FCF775FE02463B69D31A022B01D92B
:1057500003236DE0294B1B6803F00073002BF0D18D
:105760007B681B6AB3F5803F08D1244B5B6823F448
:1057700000327B689B68214913434B601F4B5B6879
:1057800023F474127B68196A7B685B6A0B431B49BC
:1057900013434B601B4B01221A60FCF749FE386132
:1057A00008E0FCF745FE02463B69D31A022B01D9FB
:1057B00003233DE0114B1B6803F00073002BF0D076
:1057C00035E0104B00221A60FCF732FE386108E029
:1057D000FCF72EFE02463B69D31A022B01D90323A4
:1057E00026E0064B1B6803F00073002BF0D11EE08F
:1057F0007B68DB69012B07D1012319E0001002400F
:1058000000700040600042420B4B5B68FB60FB682D
:1058100003F480327B681B6A9A4206D1FB6803F46A
:1058200070127B685B6A9A4201D0012300E000237A
:1058300018461837BD4680BD0010024080B584B0C0
:1058400000AF786039607B68002B01D10123D0E084
:105850006A4B1B6803F007033A689A4210D9674BFA
:105860001B6823F0070265493B6813430B60634BD9
:105870001B6803F007033A689A4201D00123B8E09D
:105880007B681B6803F00203002B20D07B681B6839
:1058900003F00403002B05D0594B5B68584A43F4CE
:1058A000E06353607B681B6803F00803002B05D09E
:1058B000534B5B68524A43F460535360504B5B68F0
:1058C00023F0F0027B689B684D4913434B607B6873
:1058D0001B6803F00103002B40D07B685B68012B41
:1058E00007D1474B1B6803F40033002B15D101236C
:1058F0007FE07B685B68022B07D1414B1B6803F09C
:105900000073002B09D1012373E03D4B1B6803F0AA
:105910000203002B01D101236BE0394B5B6823F0BC
:1059200003027B685B68364913434B60FCF780FDDC
:10593000F8600AE0FCF77CFD0246FB68D31A41F2EE
:105940008832934201D9032353E02D4B5B6803F067
:105950000C027B685B689B009A42EBD1274B1B686B
:1059600003F007033A689A4210D2244B1B6823F0D5
:10597000070222493B6813430B60204B1B6803F06E
:1059800007033A689A4201D0012332E07B681B6822
:1059900003F00403002B08D0194B5B6823F4E0628A
:1059A0007B68DB68164913434B607B681B6803F018
:1059B0000803002B09D0124B5B6823F460527B680C
:1059C0001B69DB000E4913434B6000F021F80246CF
:1059D0000B4B5B681B0903F00F030A49CB5C22FAEF
:1059E00003F3094A1360094B1B681846FCF7DEFCF9
:1059F000002318461037BD4680BD00BF002002407E
:105A00000010024038D100080000002004000020EF
:105A100090B48AB000AF294B3C1D0FCB84E80F0037
:105A200040F201233B800023FB610023BB61002384
:105A30007B6200237B6100233B62214B5B68FB613F
:105A4000FB6903F00C03042B02D0082B03D02BE0DE
:105A50001C4B3B622BE0FB699B0C03F00F032833CC
:105A60003B4413F8243C7B61FB6903F48033002B37
:105A700012D0134B5B685B0C03F0010328333B44EB
:105A800013F8283CBB617B690E4A03FB02F2BB6939
:105A9000B2FBF3F37B6204E07B690B4A02FB03F386
:105AA0007B627B6A3B6202E0064B3B6200BF3B6A63
:105AB00018462837BD4690BC704700BFE0D00008AC
:105AC0000010024000127A0000093D0080B400AFCF
:105AD000024B1B681846BD4680BC70470000002082
